:100000000C9454000C9473000C9473000C947300C3
:100010000C9473000C9473000C9473000C94730094
:100020000C9473000C9473000C9473000C94730084
:100030000C9473000C948A030C9473000C9473005A
:100040000C9473000C9473000C9473000C94730064
:100050000C9473000C9473000C9473000C94730054
:100060000C9473000C9473000C9473000C94730044
:100070000C9473000C9473000C9473000C94730034
:100080000C9473000C9473000C947300F70508062D
:1000900019062A063A064A065A0684068F068F066D
:1000A0008F068F068F06890611241FBECFEFD0E47E
:1000B000DEBFCDBF11E0A0E0B1E0EEE8F7E100E087
:1000C0000BBF02C007900D92A037B107D9F721E00E
:1000D000A0E7B1E001C01D92A73DB207E1F70E9481
:1000E000AB070C94C50B0C940000CF93DF9300D0AA
:1000F0001F92CDB7DEB789837B836A8389818A307B
:1001000031F48A819B81BC018DE00E94750080ECF6
:1001100090E0FC018081882F90E080729927892BE4
:10012000B1F386EC90E02981FC01208380E090E02F
:100130000F900F900F90DF91CF910895CF93DF93A1
:1001400000D01F92CDB7DEB789836A834B838B8142
:10015000882371F08A81282F30E081E090E002C08E
:10016000880F991F2A95E2F7982F8981892B0EC055
:100170008A81282F30E081E090E002C0880F991F2B
:100180002A95E2F7982F9095898189230F900F90F7
:100190000F90DF91CF910895CF93DF9300D0CDB72B
:1001A000DEB789836A838A81282F30E081E090E07E
:1001B00002C0880F991F2A95E2F7982F8981892319
:1001C0000F900F90DF91CF9108950F931F93CF93CE
:1001D000DF93CDB7DEB708E210E040E064E08FEFD8
:1001E0000E949E00F8018083000086E290E0FC01FE
:1001F0008081809560E00E94CC00882311F081E32B
:10020000D3C086E290E0FC018081809561E00E948D
:10021000CC00882311F084E3C7C086E290E0FC01A3
:100220008081809562E00E94CC00882311F087E3F2
:10023000BBC086E290E0FC018081809563E00E9473
:10024000CC00882311F08AE2AFC008E210E040E061
:1002500065E08FEF0E949E00F8018083000086E237
:1002600090E0FC018081809560E00E94CC008823B2
:1002700011F082E399C086E290E0FC0180818095D4
:1002800061E00E94CC00882311F085E38DC086E2F6
:1002900090E0FC018081809562E00E94CC00882380
:1002A00011F088E381C086E290E0FC0180818095B6
:1002B00063E00E94CC00882311F080E375C008E25F
:1002C00010E040E066E08FEF0E949E00F80180831E
:1002D000000086E290E0FC018081809560E00E9451
:1002E000CC00882311F083E35FC086E290E0FC013C
:1002F0008081809561E00E94CC00882311F086E324
:1003000053C086E290E0FC018081809562E00E940B
:10031000CC00882311F089E347C086E290E0FC011D
:100320008081809563E00E94CC00882311F083E2F5
:100330003BC008E210E040E067E08FEF0E949E00C3
:10034000F8018083000086E290E0FC0180818095C6
:1003500060E00E94CC00882311F081E425C086E291
:1003600090E0FC018081809561E00E94CC008823B0
:1003700011F082E419C086E290E0FC018081809552
:1003800062E00E94CC00882311F083E40DC086E275
:1003900090E0FC018081809563E00E94CC0088237E
:1003A00011F084E401C080E0DF91CF911F910F91A3
:1003B00008950F931F93CF93DF93CDB7DEB708E275
:1003C00010E040E064E08FEF0E949E00F80180831F
:1003D000000086E290E0FC018081809560E00E9450
:1003E000CC00882311F081E3C7C086E290E0FC01D5
:1003F0008081809561E00E94CC00882311F084E325
:10040000BBC086E290E0FC018081809562E00E94A2
:10041000CC00882311F087E3AFC008E210E040E091
:1004200065E08FEF0E949E00F8018083000086E265
:1004300090E0FC018081809560E00E94CC008823E0
:1004400011F082E399C086E290E0FC018081809502
:1004500061E00E94CC00882311F085E38DC086E224
:1004600090E0FC018081809562E00E94CC008823AE
:1004700011F088E381C086E290E0FC0180818095E4
:1004800063E00E94CC00882311F080E375C008E28D
:1004900010E040E066E08FEF0E949E00F80180834C
:1004A000000086E290E0FC018081809560E00E947F
:1004B000CC00882311F083E35FC086E290E0FC016A
:1004C0008081809561E00E94CC00882311F086E352
:1004D00053C086E290E0FC018081809562E00E943A
:1004E000CC00882311F089E347C086E290E0FC014C
:1004F0008081809563E00E94CC00882311F083E224
:100500003BC008E210E040E067E08FEF0E949E00F1
:10051000F8018083000086E290E0FC0180818095F4
:1005200060E00E94CC00882311F081E425C086E2BF
:1005300090E0FC018081809561E00E94CC008823DE
:1005400011F082E419C086E290E0FC018081809580
:1005500062E00E94CC00882311F083E40DC086E2A3
:1005600090E0FC018081809563E00E94CC008823AC
:1005700011F084E401C080E0DF91CF911F910F91D1
:100580000895CF93DF93CDB7DEB72C970FB6F894CD
:10059000DEBF0FBECDBF6D837E838F839887298793
:1005A0003A874B875C878D819E81AF81B88529858D
:1005B0003A854B855C85BC01CD010E94060ADC01B1
:1005C000CB0189839A83AB83BC8389819A81AB8178
:1005D000BC81892B8A2B8B2B29F489859A85AB8545
:1005E000BC8511C089859A85AB85BC858D839E832A
:1005F000AF83B88789819A81AB81BC8189879A87CB
:10060000AB87BC87D0CFBC01CD012C960FB6F89438
:10061000DEBF0FBECDBFDF91CF910895CF93DF93A3
:1006200000D000D0CDB7DEB769837A838B839C83FB
:1006300089819A81AB81BC8180930E0190930F01D7
:10064000A0931001B093110180910E0190910F01C0
:10065000A0911001B09111018093710190937201EA
:10066000A0937301B093740100000F900F900F904E
:100670000F90DF91CF910895CF93DF93CDB7DEB781
:1006800081E890E02BE0FC01208388E890E02DE7F2
:1006900030E0FC01318320838FE690E022E0FC0112
:1006A000208384E890E0FC011182108280910E0189
:1006B00090910F01A0911001B091110180937101EF
:1006C00090937201A0937301B09374018FE590E051
:1006D0002FE530E0F90120812068FC012083000033
:1006E000DF91CF910895CF93DF93CDB7DEB781E847
:1006F00090E0FC0110820000DF91CF910895CF932C
:10070000DF93CDB7DEB781E0809370010000DF9109
:10071000CF9108951F920F9200905F000F921124C5
:1007200000905B000F922F933F934F935F936F93D3
:100730007F938F939F93AF93BF93EF93FF93CF9349
:10074000DF93CDB7DEB78091710190917201A091D6
:100750007301B09174010197A109B10980937101EE
:1007600090937201A0937301B09374018091710111
:1007700090917201A0917301B0917401892B8A2B21
:100780008B2B91F40E947F0380910E0190910F01B9
:10079000A0911001B09111018093710190937201A9
:1007A000A0937301B09374010000DF91CF91FF918A
:1007B000EF91BF91AF919F918F917F916F915F91D9
:1007C0004F913F912F910F9000925B000F900092FC
:1007D0005F000F901F9018950F931F93CF93DF9397
:1007E00000D000D0CDB7DEB769837A838B839C833A
:1007F00080917B0190917C01A0917D01B0917E015F
:100800009C01AD0169817A818B819C810E94310AB2
:10081000882309F477C020E030E0A90169817A815A
:100820008B819C810E94310A882351F481E990E0F8
:1008300021E930E0F90120812870FC01208309C002
:1008400081E990E021E930E0F90120812360FC0199
:10085000208328E539E344E75FE369817A818B816E
:100860009C810E94310A882344F488E990E02FEFAC
:100870003FEFFC013183208334C020E034E244EFB9
:1008800056E469817A818B819C810E94530B1816F2
:1008900034F488E990E0FC011182108222C008E95A
:1008A00010E020E030E040E053E469817A818B8100
:1008B0009C810E94580BDC01CB019C01AD0160E0E2
:1008C00074E284EF9AE40E94360ADC01CB01BC0199
:1008D000CD010E94A80ADC01CB010197F8019183A8
:1008E000808384E990E0FC011182108289819A81E1
:1008F000AB81BC8180937B0190937C01A0937D01AF
:10090000B0937E0100000F900F900F900F90DF9139
:10091000CF911F910F910895CF93DF93CDB7DEB79D
:1009200080E990E020E4FC01208381E990E02BE065
:10093000FC01208360E070E0CB010E94EC0300002A
:10094000DF91CF910895CF93DF93CDB7DEB780E9E4
:1009500090E0FC01108281E990E0FC01108200002F
:10096000DF91CF910895CF93DF9300D01F92CDB741
:10097000DEB79B838A8380E290E0FC018081882F30
:1009800090E08170992721E0892B09F020E02983EC
:100990008A819B818130910579F08230910589F0BF
:1009A000892BC9F481E09981913009F080E0882F8A
:1009B00090E09B838A8312C082E090E09B838A83CD
:1009C0000DC081E09981992309F480E0882F90E09F
:1009D0009B838A8303C01B821A8200008A819B81C9
:1009E000019749F49091770181E0992309F080E023
:1009F0008093770101C000008A819B810F900F9046
:100A00000F90DF91CF910895CF93DF9300D0CDB7B2
:100A1000DEB79A83898389819A81009719F00197BB
:100A200061F016C09091770181E0992309F080E090
:100A3000882F90E09A8389830EC09091770181E09E
:100A4000992309F080E0882F90E09A83898303C07E
:100A50001A821982000089819A81009759F00197C2
:100A600051F49091750181E0992309F080E0809321
:100A7000750101C0000089819A810F900F90DF916C
:100A8000CF910895CF93DF9300D0CDB7DEB79A838F
:100A9000898389819A81009719F0019761F016C0C6
:100AA0009091770181E0992309F080E0882F90E010
:100AB0009A8389830BC09091770181E0992309F093
:100AC00080E0882F90E09A838983000089819A8151
:100AD000009759F0019751F49091760181E09923A4
:100AE00009F080E08093760101C0000089819A813D
:100AF0000F900F90DF91CF910895CF93DF9300D0A7
:100B00001F92CDB7DEB79B838A838A819B81892B15
:100B100019F41B821A8203C01B821A8200008A8188
:100B20009B81892B61F480917601882F90E0880F5A
:100B3000991F982F80917501892B8983000085E288
:100B400090E02981FC0120838A819B810F900F9086
:100B50000F90DF91CF910895CF93DF9300D0CDB761
:100B6000DEB79A83898389819A81892B19F41A8245
:100B7000198203C01A821982000089819A81892B07
:100B800029F40E94E5008093780106C08BE18093F0
:100B900078011A821982000089819A810F900F9042
:100BA000DF91CF910895CF93DF9300D01F92CDB7FF
:100BB000DEB79B838A8383E290E0FC01808180958D
:100BC000807889838A819B81092E000CAA0BBB0B3C
:100BD00040E050E026E030E0841B950B28173907F1
:100BE00008F46EC08A5B9F4FFC010C94280A909118
:100BF000120180917801981721F481E090E09B83A5
:100C00008A838981882309F45EC01B821A825BC0B3
:100C10009091130180917801981721F482E090E07F
:100C20009B838A838981882309F44FC01B821A829F
:100C30004CC09091140180917801981721F483E0C1
:100C400090E09B838A838981882309F440C01B82BA
:100C50001A823DC09091150180917801981721F476
:100C600084E090E09B838A838981882391F11B82B1
:100C70001A822FC09091160180917801981721F463
:100C800085E090E09B838A838981882321F11B8200
:100C90001A8221C09091170180917801981721F450
:100CA00086E090E09B838A8389818823B1F01B8250
:100CB0001A8213C08981882391F01B821A820FC087
:100CC0001B821A820DC000000BC0000009C000008A
:100CD00007C0000005C0000003C0000001C0000004
:100CE0008A819B81092E000CAA0BBB0B40E050E0CF
:100CF00026E030E0841B950B2817390788F0835BCA
:100D00009F4FFC010C94280A85E290E0FC011082C0
:100D100007C085E290E021E0FC01208301C00000D3
:100D20008A819B810F900F900F90DF91CF91089552
:100D3000CF93DF9300D01F92CDB7DEB79B838A831A
:100D400080E290E0FC0180818095807889838A81AF
:100D50009B818130910589F082309105B1F1892B19
:100D600009F03EC08981882329F081E090E09B83CF
:100D70008A8339C01B821A8236C080917901803102
:100D8000D8F40E948C0480917901882F90E0880F1C
:100D9000991F880F991F885E9E4FFC018081918169
:100DA000A281B381BC01CD010E94EC038091790145
:100DB0008F5F8093790117C0109279010E94A3047C
:100DC00082E090E09B838A830EC08981882319F496
:100DD0001B821A8208C082E090E09B838A8303C052
:100DE0001B821A8200008A819B810F900F900F90C6
:100DF000DF91CF910895CF93DF9300D000D01F9261
:100E0000CDB7DEB79D838C830E94D90189830E9470
:100E1000E5008A8383E290E0FC0180818095807800
:100E20008B838C819D818130910591F08230910579
:100E300009F44EC0892B09F081C08981882319F4F7
:100E40001D821C827EC081E090E09D838C8379C0EE
:100E50008B81882311F18A818A32F9F480915E01B5
:100E60008630B0F485E290E022E0FC0120838981A5
:100E7000882371F080915E01882F90E0885A9E4F00
:100E80002981FC01208380915E018F5F80935E0148
:100E900081E090E09D838C8354C081E080935E016B
:100EA00080915D01803279F480E28093590180E283
:100EB00080935A0180E280935B0180E280935C0121
:100EC0001D821C823EC082E090E09D838C8339C0ED
:100ED00080917A018A3050F482E090E09D838C8387
:100EE00080917A018F5F80937A012BC010927A01F2
:100EF000809159018093130180915A0180931401CC
:100F000080915B018093150180915C0180931601B3
:100F100080915D018093170180E28093590180E206
:100F200080935A0180E280935B0180E280935C01B0
:100F300080E280935D011D821C8203C01D821C82A1
:100F400000008C819D810F900F900F900F900F905B
:100F5000DF91CF9108950F931F93CF93DF93CDB778
:100F6000DEB769970FB6F894DEBF0FBECDBF87E23C
:100F700090E020EFFC01208388E290E02FE0FC016C
:100F8000208384E290E02FE7FC01208385E290E05B
:100F900020E1FC01208381E290E0FC01108282E2EA
:100FA00090E02FEFFC01208380E1EFE5F1E0DE012E
:100FB0001A9601900D928A95E1F788E090E0988763
:100FC0008F838FEF8987898580937F0182E390E00B
:100FD000A0E0B0E08093800190938101A093820112
:100FE000B09383018091800190918101A091820151
:100FF000B09183018093840190938501A093860131
:10100000B093870183EB94E09093890180938801EA
:10101000898580938A0184EF91E0A0E0B0E080931D
:101020008B0190938C01A0938D01B0938E018091E0
:101030008B0190918C01A0918D01B0918E018093D4
:101040008F0190939001A0939101B093920184E05D
:1010500095E0909394018093930189858093950105
:1010600088EE93E0A0E0B0E0809396019093970122
:10107000A0939801B0939901809196019091970166
:10108000A0919801B091990180939A0190939B014E
:10109000A0939C01B0939D0182E495E090939F0101
:1010A00080939E0189858093A0018AE090E0A0E072
:1010B000B0E08093A1019093A201A093A301B0930B
:1010C000A4018091A1019091A201A091A301B091EE
:1010D000A4018093A5019093A601A093A701B093CA
:1010E000A8018DE795E09093AA018093A9018985D5
:1010F0008093AB0182E390E0A0E0B0E08093AC018C
:101100009093AD01A093AE01B093AF018091AC017B
:101110009091AD01A091AE01B091AF018093B0016B
:101120009093B101A093B201B093B3018CEA95E022
:101130009093B5018093B40189858093B60182E3D1
:1011400090E0A0E0B0E08093B7019093B801A09345
:10115000B901B093BA018091B7019091B801A09103
:10116000B901B091BA018093BB019093BC01A093E7
:10117000BD01B093BE0183ED95E09093C0018093D3
:10118000BF0189858093C10188EC90E0A0E0B0E0C8
:101190008093C2019093C301A093C401B093C50191
:1011A0008091C2019091C301A091C401B091C50189
:1011B0008093C6019093C701A093C801B093C90161
:1011C00088E996E09093CB018093CA01898580934A
:1011D000CC0188EC90E0A0E0B0E08093CD0190934A
:1011E000CE01A093CF01B093D0018091CD01909119
:1011F000CE01A091CF01B091D0018093D101909305
:10120000D201A093D301B093D4018BEF96E09093D9
:10121000D6018093D5018A859B85FC0181819281CD
:10122000A381B4818B839C83AD83BE8384E090E0F3
:101230009A83898325C089819A81880F991F9E018D
:101240002F5F3F4F820F931F0996FC018081918190
:10125000FC0121813281438154818B819C81AD814C
:10126000BE81BC01CD010E94C102DC01CB018B8398
:101270009C83AD83BE8389819A8101969A838983F9
:1012800029813A818F81988528173907A0F28B81AF
:101290009C81AD81BE81BC01CD010E940E030E94E4
:1012A0003C0384E090E09A838983A0C089819A817D
:1012B000880F991F9E012F5F3F4F820F931F099642
:1012C000FC0180819181FC01258136814781508517
:1012D00089819A81880F991FBE016F5F7F4F860FAA
:1012E000971F0996FC0180819181FC018181928187
:1012F000A381B481281739074A075B0709F045C065
:1013000089819A81880F991F9E012F5F3F4F820F1D
:10131000931F0996FC010081118189819A81880FB0
:10132000991F9E012F5F3F4F820F931F0996FC016B
:1013300080819181FC012185328589819A81880F84
:10134000991FAE014F5F5F4F840F951F0996FC01F7
:1013500080819181FC018081082E000C990BF9019C
:101360000995F801808389819A81880F991F9E01D0
:101370002F5F3F4F820F931F0996FC01808191815F
:10138000FC01158216821782108689819A81880F46
:10139000991F9E012F5F3F4F820F931F0996FC01FB
:1013A0006081718189819A81880F991F9E012F5FC9
:1013B0003F4F820F931F0996FC0180819181FC01B0
:1013C00025813681478150858B819C81AD81BE818D
:1013D000820F931FA41FB51FFB0185839683A783EC
:1013E000B08789819A8101969A83898329813A817C
:1013F0008F8198852817390708F458CF000080910D
:1014000070018823E1F3109270014BCFA1E21A2EF4
:10141000AA1BBB1BFD010DC0AA1FBB1FEE1FFF1F98
:10142000A217B307E407F50720F0A21BB30BE40BE8
:10143000F50B661F771F881F991F1A9469F760952F
:101440007095809590959B01AC01BD01CF010895E9
:10145000EE0FFF1F0024001C0BBE0790F691E02D3D
:1014600009940E94DE0A08F481E008950E944A0A65
:101470000C94190B0E94120B58F00E940B0B40F0B9
:1014800029F45F3F29F00C94020B51110C944D0B81
:101490000C94080B0E942A0B68F39923B1F355238F
:1014A00091F3951B550BBB27AA2762177307840777
:1014B00038F09F5F5F4F220F331F441FAA1FA9F30D
:1014C00035D00E2E3AF0E0E832D091505040E695FB
:1014D000001CCAF72BD0FE2F29D0660F771F881F5C
:1014E000BB1F261737074807AB07B0E809F0BB0B4F
:1014F000802DBF01FF2793585F4F3AF09E3F510563
:1015000078F00C94020B0C944D0B5F3FE4F3983E83
:10151000D4F3869577956795B795F7959F5FC9F74B
:10152000880F911D9695879597F90895E1E0660FCC
:10153000771F881FBB1F621773078407BA0720F045
:10154000621B730B840BBA0BEE1F88F7E0950895AE
:101550000E94AF0A6894B1110C944D0B08950E943B
:10156000320B88F09F5798F0B92F9927B751B0F0F8
:10157000E1F0660F771F881F991F1AF0BA95C9F717
:1015800014C0B13091F00E944C0BB1E008950C945E
:101590004C0B672F782F8827B85F39F0B93FCCF311
:1015A000869577956795B395D9F73EF49095809594
:1015B000709561957F4F8F4F9F4F0895990F000849
:1015C000550FAA0BE0E8FEEF16161706E807F90715
:1015D000C0F012161306E407F50798F0621B730BB0
:1015E000840B950B39F40A2661F0232B242B252B31
:1015F00021F408950A2609F4A140A6958FEF811DD4
:10160000811D089597F99F6780E870E060E0089574
:101610009FEF80EC089500240A941616170618060A
:101620000906089500240A941216130614060506E6
:101630000895092E0394000C11F4882352F0BB0F77
:1016400040F4BF2B11F460FF04C06F5F7F4F8F4FDA
:101650009F4F089557FD9058440F551F59F05F3F15
:1016600071F04795880F97FB991F61F09F3F79F0C4
:1016700087950895121613061406551FF2CF469546
:10168000F1DF08C0161617061806991FF1CF8695C8
:101690007105610508940895E894BB2766277727AC
:1016A000CB0197F908950E94DE0A08F48FEF0895A0
:1016B0000E946B0B0C94190B0E940B0B38F00E94CC
:1016C000120B20F0952311F00C94020B0C94080BD4
:1016D00011240C944D0B0E942A0B70F3959FC1F3BB
:1016E000950F50E0551F629FF001729FBB27F00DD0
:1016F000B11D639FAA27F00DB11DAA1F649F662725
:10170000B00DA11D661F829F2227B00DA11D621F73
:10171000739FB00DA11D621F839FA00D611D221F2D
:10172000749F3327A00D611D231F849F600D211D11
:10173000822F762F6A2F11249F5750409AF0F1F094
:1017400088234AF0EE0FFF1FBB1F661F771F881FFD
:1017500091505040A9F79E3F510580F00C94020B28
:101760000C944D0B5F3FE4F3983ED4F38695779548
:101770006795B795F795E7959F5FC1F7FE2B880FA3
:0E178000911D9695879597F90895F894FFCFDF
:10178E0000000002000000007500000000000100D3
:10179E000000233132333435A4D082430000C443D9
:1017AE00719DAE43A4D0A4437BD4924300D0024497
:1017BE000000C443719DAE43A4D0A4437BD4924396
:1017CE0000D002440000C443719DAE43A4D0A44394
:1017DE00719DAE437BD49243232020202020017F95
:1017EE00018A019501A001AB01B601C101CC010036
:00000001FF
