:100000000C9454000C9473000C9473000C947300C3
:100010000C9473000C9473000C9473000C94730094
:100020000C9473000C9473000C9473000C94730084
:100030000C9473000C94A2020C9473000C94730043
:100040000C9473000C9473000C9473000C94730064
:100050000C9473000C9473000C9473000C94730054
:100060000C9473000C9473000C9473000C94730044
:100070000C9473000C9473000C9473000C94730034
:100080000C9473000C9473000C9473004704580490
:1000900067047504830491049F04CB04DD04DD042C
:1000A000D104DD04DD04D70411241FBECFEFD0E45A
:1000B000DEBFCDBF11E0A0E0B1E0E2E3FEE000E092
:1000C0000BBF02C007900D92AE31B107D9F721E006
:1000D000AEE1B1E001C01D92A936B207E1F70E947E
:1000E000E6040C9417070C940000CF93DF9300D024
:1000F0001F92CDB7DEB789837B836A8389818A307B
:1001000031F48A819B81BC018DE00E94750080ECF6
:1001100090E0FC018081882F90E080729927892BE4
:10012000B1F386EC90E02981FC01208380E090E02F
:100130000F900F900F90DF91CF910895CF93DF93A1
:1001400000D01F92CDB7DEB789836A834B838B8142
:10015000882371F08A81282F30E081E090E002C08E
:10016000880F991F2A95E2F7982F8981892B0EC055
:100170008A81282F30E081E090E002C0880F991F2B
:100180002A95E2F7982F9095898189230F900F90F7
:100190000F90DF91CF910895CF93DF9300D0CDB72B
:1001A000DEB789836A838A81282F30E081E090E07E
:1001B00002C0880F991F2A95E2F7982F8981892319
:1001C0000F900F90DF91CF9108950F931F93CF93CE
:1001D000DF93CDB7DEB708E210E040E064E08FEFD8
:1001E0000E949E00F8018083000086E290E0FC01FE
:1001F0008081809560E00E94CC00882311F081E32B
:10020000D3C086E290E0FC018081809561E00E948D
:10021000CC00882311F084E3C7C086E290E0FC01A3
:100220008081809562E00E94CC00882311F087E3F2
:10023000BBC086E290E0FC018081809563E00E9473
:10024000CC00882311F08AE2AFC008E210E040E061
:1002500065E08FEF0E949E00F8018083000086E237
:1002600090E0FC018081809560E00E94CC008823B2
:1002700011F082E399C086E290E0FC0180818095D4
:1002800061E00E94CC00882311F085E38DC086E2F6
:1002900090E0FC018081809562E00E94CC00882380
:1002A00011F088E381C086E290E0FC0180818095B6
:1002B00063E00E94CC00882311F080E375C008E25F
:1002C00010E040E066E08FEF0E949E00F80180831E
:1002D000000086E290E0FC018081809560E00E9451
:1002E000CC00882311F083E35FC086E290E0FC013C
:1002F0008081809561E00E94CC00882311F086E324
:1003000053C086E290E0FC018081809562E00E940B
:10031000CC00882311F089E347C086E290E0FC011D
:100320008081809563E00E94CC00882311F083E2F5
:100330003BC008E210E040E067E08FEF0E949E00C3
:10034000F8018083000086E290E0FC0180818095C6
:1003500060E00E94CC00882311F081E425C086E291
:1003600090E0FC018081809561E00E94CC008823B0
:1003700011F082E419C086E290E0FC018081809552
:1003800062E00E94CC00882311F083E40DC086E275
:1003900090E0FC018081809563E00E94CC0088237E
:1003A00011F084E401C080E0DF91CF911F910F91A3
:1003B0000895CF93DF93CDB7DEB72C970FB6F8949F
:1003C000DEBF0FBECDBF6D837E838F839887298765
:1003D0003A874B875C878D819E81AF81B88529855F
:1003E0003A854B855C85BC01CD010E94EC06DC01A1
:1003F000CB0189839A83AB83BC8389819A81AB814A
:10040000BC81892B8A2B8B2B29F489859A85AB8516
:10041000BC8511C089859A85AB85BC858D839E83FB
:10042000AF83B88789819A81AB81BC8189879A879C
:10043000AB87BC87D0CFBC01CD012C960FB6F8940A
:10044000DEBF0FBECDBFDF91CF910895CF93DF9375
:1004500000D000D0CDB7DEB769837A838B839C83CD
:1004600089819A81AB81BC8180930E0190930F01A9
:10047000A0931001B093110180910E0190910F0192
:10048000A0911001B091110180931F019093200160
:10049000A0932101B093220100000F900F900F90C4
:1004A0000F90DF91CF910895CF93DF93CDB7DEB753
:1004B00081E890E02BE0FC01208388E890E02DE7C4
:1004C00030E0FC01318320838FE690E022E0FC01E4
:1004D000208384E890E0FC011182108280910E015B
:1004E00090910F01A0911001B091110180931F0113
:1004F00090932001A0932101B09322018FE590E019
:100500002FE530E0F90120812068FC012083000004
:10051000DF91CF910895CF93DF93CDB7DEB781E818
:1005200090E0FC0110820000DF91CF910895CF93FD
:10053000DF93CDB7DEB781E080931E010000DF912D
:10054000CF9108951F920F9200905F000F92112497
:1005500000905B000F922F933F934F935F936F93A5
:100560007F938F939F93AF93BF93EF93FF93CF931B
:10057000DF93CDB7DEB780911F0190912001A0914C
:100580002101B09122010197A109B10980931F01B6
:1005900090932001A0932101B093220180911F012B
:1005A00090912001A0912101B0912201892B8A2BE9
:1005B0008B2B91F40E94970280910E0190910F0174
:1005C000A0911001B091110180931F01909320011F
:1005D000A0932101B09322010000DF91CF91FF9100
:1005E000EF91BF91AF919F918F917F916F915F91AB
:1005F0004F913F912F910F9000925B000F900092CE
:100600005F000F901F901895CF93DF9300D01F923B
:10061000CDB7DEB79B838A8380E290E0FC018081C6
:10062000882F90E08170992721E0892B09F020E044
:1006300029838A819B818130910579F082309105EF
:1006400089F0892BC9F481E09981913009F080E02B
:10065000882F90E09B838A8312C082E090E09B8386
:100660008A830DC081E09981992309F480E0882F65
:1006700090E09B838A8303C01B821A8200008A81D8
:100680009B81019749F49091250181E0992309F01C
:1006900080E08093250101C000008A819B810F903A
:1006A0000F900F90DF91CF910895CF93DF9300D0FB
:1006B000CDB7DEB79A83898389819A81009719F033
:1006C000019761F016C09091250181E0992309F00E
:1006D00080E0882F90E09A8389830EC09091250155
:1006E00081E0992309F080E0882F90E09A83898344
:1006F00003C01A821982000089819A81009759F0FB
:10070000019751F49091230181E0992309F080E051
:100710008093230101C0000089819A810F900F907E
:10072000DF91CF910895CF93DF9300D0CDB7DEB79F
:100730009A83898389819A81009719F0019761F0E2
:1007400016C09091250181E0992309F080E0882F5F
:1007500090E09A8389830BC09091250181E09923D1
:1007600009F080E0882F90E09A83898300008981D6
:100770009A81009759F0019751F49091240181E0FA
:10078000992309F080E08093240101C00000898151
:100790009A810F900F90DF91CF910895CF93DF93BF
:1007A00000D01F92CDB7DEB79B838A838A819B815D
:1007B000892B19F41B821A8203C01B821A82000043
:1007C0008A819B81892B61F480912401882F90E09C
:1007D000880F991F982F80912301892B898300000E
:1007E00085E290E02981FC0120838A819B810F9022
:1007F0000F900F90DF91CF910895CF93DF9300D0AA
:10080000CDB7DEB79A83898389819A81892B19F4C0
:100810001A82198203C01A821982000089819A8182
:10082000892B29F40E94E5008093260106C08BE104
:10083000809326011A821982000089819A810F9083
:100840000F90DF91CF910895CF93DF9300D01F9247
:10085000CDB7DEB79B838A8383E290E0FC01808181
:10086000807889838A819B81092E000CAA0BBB0B9F
:1008700040E050E026E030E0841B950B2817390754
:1008800008F463C08A5B9F4FFC010C940E078091B3
:100890002601833221F481E090E09B838A83898161
:1008A000882309F457C086E090E09B838A8352C076
:1008B00080912601813321F482E090E09B838A833A
:1008C0008981882309F448C01B821A8245C080911F
:1008D0002601823321F483E090E09B838A8389811F
:1008E0008823E1F11B821A8239C08091260183336B
:1008F00021F484E090E09B838A838981882381F1BD
:100900001B821A822DC080912601843321F485E058
:1009100090E09B838A838981882321F11B821A823C
:1009200021C080912601853321F486E090E09B83ED
:100930008A8389818823C1F01B821A8215C089812C
:100940008823A1F01B821A8211C083E090E09B8370
:100950008A830DC000000BC0000009C0000007C062
:10096000000005C0000003C0000001C000008A8133
:100970009B81092E000CAA0BBB0B40E050E026E047
:1009800030E0841B950B28173907C0F0835B9F4F1D
:10099000FC010C940E0785E290E027E0FC01208327
:1009A0000DC085E290E029E0FC01208307C085E2CC
:1009B00090E021E0FC01208301C000008A819B813E
:1009C0000F900F900F90DF91CF9108950F931F9389
:1009D000CF93DF93CDB7DEB765970FB6F894DEBF40
:1009E0000FBECDBF81E290E0FC01108282E290E078
:1009F0002FEFFC01208384E290E02FEFFC012083A5
:100A000085E290E0FC0110828CE0E2E1F1E0DE01A1
:100A10001A9601900D928A95E1F786E090E098870A
:100A20008F838FEF898789858093270182E390E008
:100A3000A0E0B0E08093280190932901A0932A01BF
:100A4000B0932B018091280190912901A0912A0156
:100A5000B0912B0180932C0190932D01A0932E0136
:100A6000B0932F0184E093E09093310180933001A3
:100A700089858093320184EF91E0A0E0B0E080931B
:100A8000330190933401A0933501B09336018091E6
:100A9000330190913401A0913501B09136018093DA
:100AA000370190933801A0933901B0933A0185E55D
:100AB00093E090933C0180933B01898580933D01B5
:100AC00088EE93E0A0E0B0E080933E0190933F0178
:100AD000A0934001B093410180913E0190913F016C
:100AE000A0914001B0914101809342019093430154
:100AF000A0934401B093450183E993E090934701AB
:100B0000809346018985809348018AE090E0A0E0C7
:100B1000B0E08093490190934A01A0934B01B093B8
:100B20004C018091490190914A01A0914B01B091F3
:100B30004C0180934D0190934E01A0934F01B093CF
:100B400050018EEC93E0909352018093510189857E
:100B50008093530182E390E0A0E0B0E080935401E1
:100B600090935501A0935601B09357018091540181
:100B700090915501A0915601B09157018093580171
:100B800090935901A0935A01B0935B018DEF93E0CC
:100B900090935D0180935C01898580935E0182E37F
:100BA00090E0A0E0B0E080935F0190936001A0939B
:100BB0006101B093620180915F0190916001A09109
:100BC0006101B09162018093630190936401A093ED
:100BD0006501B093660184E294E09093680180938C
:100BE00067018A859B85FC0181819281A381B48103
:100BF0008B839C83AD83BE8384E090E09A8389835A
:100C000025C089819A81880F991F9E012F5F3F4FD0
:100C1000820F931F0996FC0180819181FC01218143
:100C20003281438154818B819C81AD81BE81BC0125
:100C3000CD010E94D901DC01CB018B839C83AD8364
:100C4000BE8389819A8101969A83898329813A8119
:100C50008F81988528173907A0F28B819C81AD81FF
:100C6000BE81BC01CD010E9426020E94540284E094
:100C700090E09A838983A0C089819A81880F991F07
:100C80009E012F5F3F4F820F931F0996FC018081C9
:100C90009181FC01258136814781508589819A8126
:100CA000880F991FBE016F5F7F4F860F971F0996B0
:100CB000FC0180819181FC0181819281A381B481B9
:100CC000281739074A075B0709F045C089819A81CF
:100CD000880F991F9E012F5F3F4F820F931F099628
:100CE000FC010081118189819A81880F991F9E01E1
:100CF0002F5F3F4F820F931F0996FC0180819181E6
:100D0000FC012185328589819A81880F991FAE0166
:100D10004F5F5F4F840F951F0996FC018081918181
:100D2000FC018081082E000C990BF9010995F8014E
:100D3000808389819A81880F991F9E012F5F3F4F81
:100D4000820F931F0996FC0180819181FC0115821D
:100D500016821782108689819A81880F991F9E01B9
:100D60002F5F3F4F820F931F0996FC0160817181B5
:100D700089819A81880F991F9E012F5F3F4F820FB3
:100D8000931F0996FC0180819181FC0125813681A8
:100D9000478150858B819C81AD81BE81820F931FDD
:100DA000A41FB51FFB0185839683A783B087898124
:100DB0009A8101969A83898329813A818F819885C6
:100DC0002817390708F458CF000080911E018823A6
:100DD000E1F310921E014BCFA1E21A2EAA1BBB1BFE
:100DE000FD010DC0AA1FBB1FEE1FFF1FA217B307F7
:100DF000E407F50720F0A21BB30BE40BF50B661F0D
:100E0000771F881F991F1A9469F7609570958095D0
:100E100090959B01AC01BD01CF010895EE0FFF1F1E
:100E20000024001C0BBE0790F691E02D0994F89465
:020E3000FFCFF2
:100E32000000000200000000750000000000010038
:0E0E42000000270132013D01480153015E010D
:00000001FF
